:1000000000308A00C3280000FF30A00083160614C9
:10001000831206180E280130A000252883168614A6
:100020008312861816280230A0002528831606158C
:10003000831206191E280330A00025288316861572
:100040008312861925280430A0000800FF30A20082
:10005000A1012108033C031CA4282108FC3E03182D
:100060005A28043EA528831686138312861304207B
:1000700083168613831286175A2883160613831253
:100080000613042083160613831206175A288316B4
:100090008612831286120420831686128312861615
:1000A0005A2883160612831206120420831606129B
:1000B00083120616200F5D28A228200DF700F70DE9
:1000C000FC30F70577082107A2002208043C031C36
:1000D0006B2800306C280130073C031C7928200D68
:1000E000F700F70DFC30F70577082107FF3EA20067
:1000F000A1282208043C031D80281430A200A12856
:100100002208083C031D87283230A200A1282208BB
:100110000C3C031D8E286430A200A1282208083C54
:10012000031C94280030952801300B3C031CA128A7
:10013000200DF700F70DFC30F70577082107FF3E8B
:10014000A200A428A10A292808000A108A100A116E
:10015000820733283D284728512824308400831300
:1001600000080319C0280630F800F701F70BB6287D
:10017000F80BB5287B30F700F70BBC28800BB328B1
:100180008A110A12D62803081F39830083161F1408
:100190009F141F159F1107309C0083138312262084
:1001A000220FD328E3280A30A400AD282620220FEE
:1001B000DA28E3282208A300220FDF28E1282620DE
:0801C000DC282308A200630003
:02400E00723FFF
:00000001FF
;PIC16F877A
;CRC=4949  CREATED="07-Apr-22 13:13"
