:1000000010308A0000280000FF00030E8301A100C9
:100010000A08A0008A010408A2007708A300780853
:10002000A4007908A5007A08A60003170D08031399
:10003000A70003170F080313A80003170C080313E6
:10004000A90003170E080313AA00831383120B1EC3
:100050002B288B184C28220884002308F70024083A
:10006000F8002508F9002608FA00270803178D0074
:100070000313280803178F000313290803178C00A4
:1000800003132A0803178E00031320088A00210E89
:100090008300FF0E7F0E09008A110A12F42D8E30A4
:1000A000F70083165F08F8005E08F900FA01F80807
:1000B000031D64287908F800F9010830F702F808F0
:1000C000031D6428F7016C280310F81B6B28F90D39
:1000D000F80DF7036428F8138312080083165F08ED
:1000E000E6006308E606E61F7A2803110310DF1B0B
:1000F0000314AD285F08E6006208E7005E08E70227
:1001000003198828E61FAD280308013A8300AD28AB
:100110006308E7005F08E70203199428E61FAD288B
:100120000308013A8300AD286408E7006008E7028D
:100130000319A028E61FAD280308013A8300AD2863
:100140006508E7006108E7020319AC28E61FAD283F
:100150000308013A8300AD280310831208008030A1
:10016000831CB5288316E30683128316E801E90190
:100170005F08E7006308E7065E080319A329E600A5
:10018000F70062080319AC29E60203194829031C89
:1001900006296308EC00EC176408EB006508EA0028
:1001A000E9010310EC0CEB0CEA0CE90CE60BD0288F
:1001B000E71FDD286814C029681066106816E13052
:1001C00084008313D5296812E71BF028661CFB28DE
:1001D000EC0CEB0CEA0CE90CF70A0319BB29FB2821
:1001E000EC1BFE280310E90DEA0DEB0DEC0DF703F7
:1001F0000319BB29F0286817682968135F08E7000E
:10020000E71F0429EC17B429EC13B4296208E600AF
:10021000F7005E08E6025F08EC00EC176008EB00F0
:100220006108EA00E9010310EC0CEB0CEA0CE90CA4
:10023000E60B1229E71F1F29E814C029E8106610F1
:10024000E816E53084008313D529E812E71B32292C
:10025000661C3D29EC0CEB0CEA0CE90CF70A0319BF
:10026000BB293D29EC1B40290310E90DEA0DEB0DDC
:10027000EC0DF7030319BB293229E8176829E813A5
:100280006308E700E71F4629EC17B429EC13B429EB
:100290006308EC00EC176408EB006508EA00E71F50
:1002A0005529EC136815C0296811E9016610E13081
:1002B00084008313D529E71B7E295F08E700661CAD
:1002C0006829EC0CEB0CEA0CE90CF70A0319BB29C2
:1002D000E91F7929EA0A031D7929EB0A031D792907
:1002E000EC0A031D7929EC0CEB0CEA0CF70A031954
:1002F000BB29681BFD28E81B3F299D298030EC069F
:10030000EC1F8629C0296308E70093295F08E700EE
:10031000EC08031D9329EB08031D9329EA08031D2C
:100320009329F701B429EC1B9D290310E90DEA0D6F
:10033000EB0DEC0DF70B9329BB29E71FA129EC1757
:10034000B429EC13B4296208F7006308EC006408D0
:10035000EB006508EA00B4295E08F7005F08EC00CE
:100360006008EB006108EA006C08F8006B08F9000F
:100370006A08FA00F329F701F801F901FA01F329F3
:10038000E901EA09EB09EC09E909E90A031DCE29AB
:10039000EA0A031DCE29EB0A0319EC0A6818DC28C7
:1003A000E8181E296819542983290008EA07031C44
:1003B000DF29EB0A031DDF29EC0A03196614840305
:1003C0000008EB07031CE729EC0A031966148403F1
:1003D0000008801F803AEC0703186614681AE328A7
:1003E000E81A25295B298312080083166B08031974
:1003F000972A8312031794001008031D022A8316FC
:100400000313972A94070318122A7F3094020318C3
:100410000C2A83160313972A031D112A831603132C
:10042000972A192A81309407031C192A831603136B
:10043000972A1408F700F801F901FA01831603134B
:100440006C088312031798009817831603136D081E
:10045000831203179700831603136E088312031782
:100460009600183094009501161C572A1308FA07B5
:10047000031C402AF90A031D402AF80A031995179C
:100480001208F907031C472AF80A031995171108DF
:1004900083160313ED00ED176D08F807031C552AAA
:1004A0008312031795178316031383120317950DF1
:1004B000F80CF90CFA0C980C970C960C0310940B92
:1004C000332A0130F707031C682A83160313972A7F
:1004D000F81B732A980DFA0DF90DF80DF70B732A16
:1004E00083160313972A981F872AFA0A031D872A5F
:1004F000F90A031D872AF80A031D872AF80CF90C4C
:10050000FA0CF70A031D872A83160313972A83160A
:1005100003136C0883120317950011089506951FA5
:10052000932AF8179D2AF8139D2A83160313F701BF
:10053000F801F901FA018312031703130800DF30F1
:100540008400831300080319B22A0630F800F7016B
:10055000F70BA82AF80BA72A7B30F700F70BAE2A77
:10056000800BA52A080083165E080319792BEA0080
:1005700062080319792BEA02031CC32A7F30EA07B9
:100580000318792BC92A8130EA02031C792B03193D
:10059000792B6A08F700F801F901FA01E9015F080F
:1005A000E800E8176008E7006108E6001930EA0093
:1005B0006508E6020318EC2A0130E7020318EC2A6A
:1005C000E8020318EC2AE9020318EC2AE90AE80A0F
:1005D000E70A6508E6071E2B6408E7020318072BE5
:1005E0000130E8020318072BE9020318072BE90A78
:1005F000E80A6408E7076508E607031C1E2BE70AFC
:10060000031D1E2BE80A031D1E2BE90A1E2B63087F
:100610008038E80203181D2B0130E90203181D2B56
:10062000E90A63088038E8076408E707031CFB2A27
:10063000E80A031DFB2AE90AFB2A7A14EA0B212B9C
:100640002C2B0310E60DE70DE80DE90D0310FA0D54
:10065000F90DF80DEB0DD82A6B1C342B0310F80C98
:10066000F90CFA0CEB0C372BF7030319792BEB1B66
:10067000602B0310E60DE70DE80DE90D6508E602B5
:1006800003184C2B0130E70203184C2BE802031827
:100690004C2BE902031C6F2B6408E7020318572B4D
:1006A0000130E8020318572BE902031C6F2B630883
:1006B0008038E8020318602B0130E902031C6F2B1D
:1006C000FA0A031D6F2BF90A031D6F2BF80A031D8D
:1006D0006F2BF70A0319792BF80CF90CFA0C5F0849
:1006E000EA006308EA06EA1F772BF8177D2BF81358
:1006F0007D2BF701F801F901FA01831208000B08BC
:100700008316DF0083128B13831603178C170C14C8
:10071000000000000313DF1F902B83128B1783163A
:100720000318CA2B831203170C087F39831603138F
:10073000DF00831203170D0883160313E0008312F2
:1007400003170F0883160313E1005F0883120C1EC2
:10075000A72B990083166008831203178D00831658
:1007600003136108831203178F0003130B0883160A
:10077000E20083128B13831603178C170C140000EE
:1007800000000313E21FC72B83128B178316DE0BA7
:10079000CA2BF92B831203170C0D0E0D7F3983160C
:1007A0000313DF00831203170D0883160313E00001
:1007B000831203170F0883160313E1005F088312E7
:1007C0000C1EE02B990083166008831203178D001E
:1007D000831603136108831203178F008D0A031910
:1007E0008F0A031083160313DE0BF72BF92B8312EA
:1007F0007F2B8312080080080319182C8316DF0151
:100800000408DE005F10831B5F14000883120C1EB7
:10081000072C990083165E08840083135F188317E2
:10082000840A031D162C8312850A83168312FB2B60
:1008300008000B088316DE0083128B138316031740
:100840008C170C14000000000313DE1F2A2C8312E7
:100850008B178316831203170C087F3903198D2C0D
:1008600083160313DE00831203170D088316031388
:10087000DF00831203170F0883160313E0005E08DE
:1008800083120C1E412C990083165F0883120317F4
:100890008D00831603136008831203178F00031360
:1008A0000B088316E10083128B13831603178C1732
:1008B0000C14000000000313E11F612C83128B173E
:1008C0008316831203170C0D0E0D7F3903198D2C1F
:1008D00083160313DE00831203170D088316031318
:1008E000DF00831203170F0883160313E0005E086E
:1008F00083120C1E792C990083165F08831203174C
:100900008D00831603136008831203178F008D0A6E
:1009100003198F0A0313192C0317031308008316F6
:100920006B08B63CEB00FA016C08EF00EC17031003
:10093000EC0CED0CEE0CFA0CF90CF80CF70CEB0BC4
:10094000972CEF1FAE2CF709F809F909FA09F70AF5
:100950000319F80A0319F90A0319FA0A831208009D
:100960008318B52C143084008317F701F801F901BE
:10097000FA010317940195019601970113081204D7
:10098000110410040319F82C20309800031083166A
:100990000313EB0DEC0DED0DEE0D83120317940D0B
:1009A000950D960D970D13081702031DE12C1208E3
:1009B0001602031DE12C11081502031DE12C10087D
:1009C0001402031CF22C100894021108031C110FCE
:1009D00095021208031C120F96021308031C130F32
:1009E00097020314F70DF80DF90DFA0D980BC62CAC
:1009F00014088000840A15088000840A1608800004
:100A0000840A170880000313080004088316E30013
:100A10006208E5000319292D6108EE006008ED0069
:100A20005F08EC005E08EB0083120317930192014C
:100A300020309100823090000313F5217A0883164C
:100A4000E1007908E0007808DF007708DE00E50BB8
:100A50000C2D6108EE006008ED005F08EC005E08F8
:100A6000EB0083128F247A088316E1007908E000F6
:100A70007808DF007708DE00E11F4B2DE303E31663
:100A8000DE09DF09E009E109DE0A0319DF0A0319BB
:100A9000E00A0319E10A3B30EA009A30E900CA3063
:100AA000E800E7010A30E50062080319E30A83144D
:100AB000DE30840083136108EE006008ED005F08FB
:100AC000EC005E08EB006A0883120317930083169C
:100AD000031369088312031792008316031368082F
:100AE00083120317910083160313670883120317F9
:100AF00090000313B0247808F708031D962D831681
:100B0000620A6502031D862D8312962D6308031960
:100B1000992D0F39650203198F2D0318D52DE31B6D
:100B2000D52D631B992D2030CE2D831220308316B6
:100B3000E305E31EAA2DE3126208031DE303770811
:100B4000E3002D3083120C1EA32D99008316630839
:100B5000F700E30162086502031DBB2D7708E3007F
:100B60002E3083120C1EB22D990083166308F700F5
:100B70002030E30500303030E31ECE2DE312620852
:100B8000031DE3037708E3002D3083120C1EC62DEE
:100B9000990083166308F700E3013030F707770800
:100BA00083120C1ED12D9900831683106A08EE0063
:100BB0006908ED006808EC006708EB008312031772
:100BC0009301920191010A3090000313B0247A0836
:100BD0008316EA007908E9007808E8007708E7005A
:100BE000E50B572D831208000130E8070318E90AC6
:100BF00069088316DF00831268088316DE008312FB
:100C00004F207A088316E1007908E0007808DF00B9
:100C10007708DE007E08E5007D08E4007C08E3003C
:100C20007B08E20083126E20031C6F2E8310831654
:100C30002708E1002608E0002508DF002408DE0080
:100C4000BC30E5007430E4001330E3007630E2009D
:100C50008312AF207A088316A7007908A6007808C7
:100C6000A5007708A4007108EE007008ED0083125B
:100C70006F088316EC0083126E088316EB00BC30FD
:100C80008312031793007430920013309100763072
:100C900090000313F521831083162B08E1002A0826
:100CA000E0002908DF002808DE007A08E50079085E
:100CB000E4007808E3007708E2008312AF207A08A6
:100CC0008316AB007908AA007808A9007708A80065
:100CD000831205148316051083128B102D2F051017
:100CE00083160510C830DF0083129F2283162B085D
:100CF000E1002A08E0002908DF002808DE00E501FD
:100D0000E4017A30E3008830E2008312B3227A08EB
:100D10008316AF007908AE007808AD007708AC0004
:100D20003130831203178D0007308F00031013300A
:100D300083160313DE0083127F2335088400831398
:100D400036188317FB233B3003178D0007308F00C5
:100D50000314063083160313DE0083127F2308304A
:100D60008316DE00FA30DF0083129F228316DE0B2B
:100D7000B22E3F30831203178D0007308F0003130C
:100D8000192408308316DE00FA30DF0083129F2218
:100D90008316DE0BC42EDD015D08013C031C162FFB
:100DA0004830831203178D0007308F000310463040
:100DB00083160313DE0083127F23C9308400831659
:100DC0002F08E1002E08E0002D08DF002C08DE00CF
:100DD0000330E200831205256D3003178D000730C4
:100DE0008F000314083083160313DE0083127F2361
:100DF000C930840083162708E1002608E000250892
:100E0000DF002408DE000330E20083120525743081
:100E100003178D0007308F0003103F308316031334
:100E2000DE0083127F238316DD0ACC2E0430DE0021
:100E3000AF30DF0083129F228316DE0B182F943011
:100E4000831203178D0007308F0003131924C83055
:100E50008316DF0083129F228B108B108A110A12D7
:100E60002B28412AAB214928532A4129D41E222A62
:100E700043282216A21273112C1CB0060A00412A24
:100E8000AB214928D3224E223D1930180D05000010
:100E9000C7225410683A7438731DAF176138691748
:100EA00074346937E739F032E135AE31EF36AF3AB5
:100EB0007032613AE51F6138E92FEB32F91E4B2C95
:100EC000332B5623382AB31A43185723D0202633FE
:100ED000E9326C32B21E2518AE196613E634653657
:100EE000E418BD12301733332024542AD017311799
:100EF000B1060A24EF39741DA030F0342E3AE834DC
:100F0000EE337338E5306B17E337ED068A216F3720
:100F1000EE32633AE9376E1DA035E532F0166136E0
:100F2000693BE5068A060A00412AAB214928432687
:100F3000CF29C5060A00412A0D050001412A2B29A7
:100F4000532A0D050001412AAB21D7264F22C51E89
:100F5000B1060A00412AAB21572541283D11A53988
:100F60002216A21273110D050001412AAB21492856
:100F7000CD2AD81EB0060A003218301830003518B5
:100F8000301830003118301830180000D327202ACC
:100F9000C9224E1DA0126600D3272026492A3A10E6
:100FA0002518AE196610000143244F27A023C9203D
:100FB0003A00C4274E10C724411D20008316520B4F
:100FC000E22FE52F4030D300E62FD301013051024C
:100FD000D30753088038D400D5015408D6008A15A9
:080FE00083126B208A11080046
:10100000831658180728831208120928831683129A
:10101000081683160812D81811288312881213286C
:101020008316831288168316881258191B28831278
:1010300008131D2883168312081783160813D8195E
:10104000252883128813272883168312881783166E
:101050008813000083120915831609110330F70065
:10106000F70B302883120911831609118312080027
:101070008316D901081600308312081A013083162E
:10108000D904881600308312881A0130F700031043
:10109000F70D77088316D904081700308312081B50
:1010A0000130F700F70DF70DFC30F70577088316D0
:1010B000D904881700308312881B0130F700F70D20
:1010C000F70DF70DF830F70577088316D90459089E
:1010D000F800831208008316091109108910831281
:1010E0000910831609100816881608178817831226
:1010F00089148316891000008312091583160911BB
:1011000000008312382078088316D8008312091152
:1011100083160911000083120915831609119028FE
:10112000912800008312382078088316D700831294
:101130000911831609110812881208138813580E12
:10114000F700F030F70577085704F8007808D70063
:10115000D71B7328D508031DB12883120910B328A3
:101160008316831209148316091000008312891054
:101170008316891000008312091183160911560E77
:10118000D7000F30D7055708D800831200208316E8
:1011900056080F39D700D8008312002008002830E5
:1011A0008316C4000C30C5000130C6000630C700ED
:1011B000831209118316091183120910831609106D
:1011C0008312891083168910081288120813881355
:1011D0000911091089108312AB018B1BAB178B13FC
:1011E0000F308316DF008A1183129F228A15AB1BF2
:1011F0008B1701308316C3004308033C031C1429DA
:101200000330D80083120020AB018B1BAB178B136C
:1012100005308316DF008A1183129F228A15AB1BCB
:101220008B178316C30AFC280230D80083120020D3
:10123000AB018B1BAB178B1305308316DF008A11B4
:1012400083129F228A15AB1B8B178316C301430899
:10125000033C031C3929C43043078400831300086E
:10126000C800D5014808D60083126B208316C30A34
:10127000272983128A110A168528FF30CA004E14C6
:101280004E0883168700831207184829CA0165296A
:10129000CE144E0883168700831287185229013016
:1012A000CA0065294E154E08831687008312071958
:1012B0005C290230CA006529CE154E0883168700C6
:1012C0008312871965290330CA000800FF30CC005B
:1012D000CB014B08033C031CFC294B08FC3E0318C4
:1012E0009A29043EFD2983168512831285123D2119
:1012F00083168512831285169A2983160512831286
:1013000005123D2183160512831205169A298316AC
:101310008511831285113D21831685118312851550
:101320009A2983160511831205113D218316051193
:10133000831205154A0F9D29FA294A0DF700F70D6A
:10134000FC30F70577084B07CC004C0BAA29CC01E1
:10135000FC29F9294C08033C0318B6294C08063C23
:10136000031CB6290330CC02FC29F9294C08073CA0
:10137000031DBE291430CC00FC29F9294C08073C78
:101380000318CA294C080A3C031CCA290430CC02A1
:10139000FC29F9294C080B3C031DD2293230CC0022
:1013A000FC29F9294C080B3C0318DE294C080E3C9B
:1013B000031CDE290530CC02FC29F9294C080F3C1E
:1013C000031DE6296430CC00FC29F929CC08031D53
:1013D000EC291630CC00F9294C08023C031DF329F6
:1013E0001730CC00F9294C08033C031DF9291830AB
:1013F000CC00FC29CB0A692908000A108A140A11BA
:10140000820773297D298729912966214C0F092A92
:10141000232AAB018B1BAB178B130A308316DF001B
:101420008A1183129F228A15AB1B8B1766214C0FE2
:101430001A2A232A4C08CD004C0F1F2A212A662184
:101440001C2A4D08CC00080083164308840083132F
:10145000441883170008C700840A0008C800840ADB
:101460000008C900840A0008CA00450884008313E4
:10147000461883170008F700840A0008F800840A59
:101480000008F900840A0008FA008312AB018B1BE4
:10149000AB178B1383164A08E1004908E00048089F
:1014A000DF004708DE007A08E5007908E4007808E4
:1014B000E3007708E2008A118312B3228A15AB1B7E
:1014C0008B177A08F5007908F4007808F30077089C
:1014D000F200AB018B1BAB178B1375088316E10071
:1014E0007408E0007308DF007208DE00BC30E5001D
:1014F0007430E4001330E3007630E2008A11831286
:10150000B3228A15AB1B8B177A08FE007908FD0001
:101510007808FC007708FB00080083165008073A9B
:10152000831203199D2A0B3A0319A62A063A0319B6
:10153000BA2A023A0319C42ACB2A01308316D100F1
:10154000D2008A118312DE278A15D22A8316D5018A
:101550000130D60083126B20AB018B1BAB178B13B2
:1015600002308316DF008A1183129F228A15AB1B7B
:101570008B17D22A01308316D1000230D2008A1193
:101580008312DE278A15D22A8316D5011030D600A1
:1015900083126B20D22A01308316D5005008D60062
:1015A00083126B2008000B088316C30083128B1371
:1015B000831603178C170C14000000000313C31FBD
:1015C000E42A83128B178316831203170C087F39C2
:1015D0000319452B83160313C300831203170D0849
:1015E00083160313C400831203170F088316031313
:1015F000C5004308D00083128D228316440883124D
:1016000003178D00831603134508831203178F00F9
:1016100003130B088316C60083128B13831603175C
:101620008C170C14000000000313C61F1A2B831222
:101630008B178316831203170C0D0E0D7F390319B8
:10164000452B83160313C300831203170D0883165B
:101650000313C400831203170F0883160313C50076
:101660004308D00083128D22831644088312031787
:101670008D00831603134508831203178F008D0A0C
:1016800003198F0A0313D32A0317031308008E309C
:10169000F70083164308F7024408F9004508F800EC
:1016A000F917F70803195F2B0310F908031D5B2BCB
:1016B000F80803195F2BF90CF80CF70B542BC41F17
:1016C000662BF809F909F80A0319F90A83120800C8
:1016D0000B088316C40083128B13831603178C1711
:1016E0000C14000000000313C41F792B83128B1706
:1016F00083160318B22B831203170C087F39831645
:101700000313C400831203170D0883160313C500C7
:10171000831203170F0883160313C6004408D00072
:1017200083128D2283164508831203178D008316BA
:1017300003134608831203178F0003130B08831645
:10174000C70083128B13831603178C170C14000029
:1017500000000313C71FAF2B83128B178316C30B15
:10176000B22BE02B831203170C0D0E0D7F3983165D
:101770000313C400831203170D0883160313C50057
:10178000831203170F0883160313C6004408D00002
:1017900083128D2283164508831203178D0083164A
:1017A00003134608831203178F008D0A03198F0A4B
:1017B000031083160313C30BDE2BE02B8312682B5D
:1017C0008312080004088316C8004708CA000319DA
:1017D000102C8312AB018B1BAB178B13831646089F
:1017E000EE004508ED004408EC004308EB008312CE
:1017F00003179301920120309100823090008A11EA
:101800000313F5218A15AB1B8B177A088316C600C4
:101810007908C5007808C4007708C300CA0BE92B13
:101820008312AB018B1BAB178B1383164608EE009C
:101830004508ED004408EC004308EB008A118312D0
:101840008F248A15AB1B8B177A088316C60079087C
:10185000C5007808C4007708C300C61F3C2CC80325
:10186000C816C309C409C509C609C30A0319C40AAD
:101870000319C50A0319C60A3B30CF009A30CE00BF
:10188000CA30CD00CC010A30CA0047080319C80A83
:101890008314C330840083138312AB018B1BAB17FB
:1018A0008B1383164608EE004508ED004408EC0053
:1018B0004308EB004F0883120317930083160313AA
:1018C0004E08831203179200831603134D088312E8
:1018D00003179100831603134C088312031790001B
:1018E0008A110313B0248A15AB1B8B177808F708ED
:1018F000031D912C8316470A4A02031D812C831273
:10190000912C48080319942C0F394A0203198A2C88
:101910000318CC2CC81BCC2C481B942C2030C62C74
:10192000831220308316C805C81EA42CC81247088D
:10193000031DC8037708C8002D30D00083128D2204
:1019400083164808F700C80147084A02031DB42C53
:101950007708C8002E30D00083128D2283164808E5
:10196000F7002030C80500303030C81EC62CC81221
:101970004708031DC8037708C8002D30D000831224
:101980008D2283164808F700C8013030F707770822
:10199000D00083128D22831683108312AB018B1B20
:1019A000AB178B1383164F08EE004E08ED004D0861
:1019B000EC004C08EB008312031793019201910194
:1019C0000A3090008A110313B0248A15AB1B8B17C1
:1019D0007A088316CF007908CE007808CD00770802
:0A19E000CC00CA0B482C831208004B
:1020000003081F398300AC01813083169900A63084
:102010009800903083129800FF30CE008316C201E2
:10202000C1011F149F141F159F1107309C008313BB
:102030008312AD01AE01B101B0013130AF00B40186
:10204000B3013430B2006130B7007030B80069308D
:10205000B9002E30BA007430BB006830BC00693063
:10206000BD006E30BE006730BF007330C0007030FE
:10207000C1006530C2006130C3006B30C4002E3037
:10208000C5006330C6006F30C7006D30C800C9019D
:10209000B6013730B5002030CF00D000D100D200DB
:1020A000D300D400D500D600D700D800D900DA007C
:1020B000DB00DC00DD00DE00DF018316B000B100D4
:1020C000B200B300B400B500B600B700B800B90064
:1020D000BA00BB00BC00BD00BE00BF00C0010F3095
:1020E00086000030880009108910091185008312CC
:1020F00005148316051083120B16C0308B0483164B
:1021000001130A128A158312CF280A168A119B30EE
:1021100003178D0007308F000313AB018B1BAB1728
:102120008B130A1219240A16AB1B8B170430831663
:10213000C3008312AB018B1BAB178B13FA308316D2
:10214000DF000A1283129F220A16AB1B8B1783161D
:10215000C30B99289E30831203178D0007308F0020
:102160000313AB018B1BAB178B130A1219240A162E
:10217000AB1B8B1704308316C3008312AB018B1B80
:10218000AB178B13FA308316DF000A1283129F22DB
:102190000A16AB1B8B178316C30BBD28A330831203
:1021A00003178D0007308F000313AB018B1BAB1798
:1021B0008B130A1219240A16AB1B8B1704308316D3
:1021C000C3008312AB018B1BAB178B13FA30831642
:1021D000DF000A1283129F220A16AB1B8B1783168D
:1021E000C30BE128AA30831203178D0007308F003C
:1021F00003100313AB018B1BAB178B130A30831631
:10220000DE000A1283127F230A16AB1B8B172F08DE
:102210008400831330188317AB018B1BAB178B1310
:102220000A12FB230A16AB1B8B1722300C1E162931
:1022300099002C300C1E1A29990022300C1E1E29E0
:10224000990032088400831333188317AB018B1B6A
:10225000AB178B130A12FB230A16AB1B8B1722300A
:102260000C1E302999000D300C1E342999000A30BB
:102270000C1E3829990010308316C3008312AB015D
:102280008B1BAB178B13FA308316DF000A128312F5
:102290009F220A16AB1B8B178316C30B3E29B53042
:1022A000831203178D0007308F000313AB018B1BC4
:1022B000AB178B130A1219240A16AB1B8B170430A9
:1022C0008316C3008312AB018B1BAB178B13FA3041
:1022D0008316DF000A1283129F220A16AB1B8B178C
:1022E0008316C30B62290A128A158312031305226F
:1022F0000A168A114C0F7D29EE2C4C080A3C031C4F
:10230000A32A6708FA006608E60A0319E70AE60046
:102310007A08E70066080A3AF7006708FA007708C3
:10232000AB018B1BAB178B138316DE007A08DF0023
:102330000A1283124F200A16AB1B8B17AB018B1BA3
:10234000AB178B1383162308EE002208ED0021083B
:10235000EC002008EB007A08831203179300790839
:10236000920078089100770890000A120313F52173
:102370000A16AB1B8B177A088316C6007908C500AE
:102380007808C4007708C3008312AB018B1BAB171E
:102390008B138316DF0183124C088316DE000A12AA
:1023A00083124F200A16AB1B8B178310AB018B1BBC
:1023B000AB178B1383164608E1004508E00044087C
:1023C000DF004308DE007A08E5007908E4007808B9
:1023D000E3007708E2000A128312AF200A16AB1B53
:1023E0008B177A088316A3007908A2007808A10049
:1023F0007708A0008312AB018B1BAB178B138316DE
:10240000E101E0014830DF008530DE002308E5000F
:102410002208E4002108E3002008E2000A128312E7
:102420006E200A16AB1B8B17031C242A8316C401CB
:10243000A030C300C6016E30C5000A128A1583128F
:1024400024220A168A11472AAB018B1BAB178B1368
:1024500083162308E1002208E0002108DF0020089D
:10246000DE00BC30E5007430E4001330E300763069
:10247000E2000A128312B3220A16AB1B8B177A08EA
:10248000FE007908FD007808FC007708FB00E101F8
:10249000E001E108031D792A60080F3C031C792A3A
:1024A0004F3060078316C300831261088316C4008F
:1024B0000318C40A0130831260078316C500831213
:1024C00061088316C6000318C60A4F30450784000A
:1024D0008313461883170008C7004308840083133A
:1024E00044188317470880008312E00A0319E10AA1
:1024F000492A30304C07DE0015308316D1000130F8
:10250000D2000A128312DE270A16E101E001E10877
:10251000031DA22A60080F3C031CA22A4F3060074B
:10252000840083136118831700088316C300D0004A
:102530000A128A1583128D220A168A11E00A0319DB
:10254000E10A872AEE2C4C08143C031DD02A1F30C8
:102550008316D1000130D2000A128312DE270A1638
:10256000BC3003178D0007308F000A128A15031341
:10257000D3220A168A11ED014030EC001C30EB002A
:102580008D30EA008316C4016A30C300C6016E3084
:10259000C5000A128A15831224220A168A11EE2C0B
:1025A0004C08323C031DFD2A1F308316D100013038
:1025B000D2000A128312DE270A16BF3003178D00DD
:1025C00007308F000A128A150313D3220A168A11C4
:1025D000ED015030EC004330EB008E30EA00831602
:1025E000C4016A30C300C6016E30C5000A128A15E4
:1025F000831224220A168A11EE2C4C08643C031D17
:102600002A2B1F308316D1000130D2000A12831208
:10261000DE270A16C23003178D0007308F000A121A
:102620008A150313D3220A168A11ED015030EC00EB
:102630004330EB008F30EA008316C4016A30C300D8
:10264000C6016E30C5000A128A15831224220A16AA
:102650008A11EE2C4C08163C031DC32B051483165F
:102660000510F501F401F301F201A301A201A1019A
:10267000A0012308C6002208C5002108C4002008C4
:10268000C3000A128A15831247230A168A11790891
:10269000E7007808E600AB018B1BAB178B136708CC
:1026A0008316DF00831266088316DE000A12831287
:1026B0004F200A16AB1B8B177A08FE007908FD0025
:1026C0007808FC007708FB008316A701A601A50186
:1026D000A4012708C6002608C5002508C400240850
:1026E000C3000A128A15831247230A168A11790831
:1026F000E9007808E800AB018B1BAB178B13690866
:102700008316DF00831268088316DE000A12831224
:102710004F200A16AB1B8B177A088316AB0079087B
:10272000AA007808A9007708A8001F30D10001305E
:10273000D2000A128312DE270A16E101E001E10845
:10274000031DC22B60080F3C031CC22B4F306007D7
:102750008400831361188317013080004F306007B5
:10276000840083136118831700088316C300D00008
:102770000A128A1583128D220A168A11E00A031999
:10278000E10A9F2BEE2C4C08173C031DB62C0A12B5
:102790008A158312031305220A168A114C0FD12BB6
:1027A000B42C4C080A3C031CAD2C6508FA006408E4
:1027B000E40A0319E50AE4007A08E50064080A3A25
:1027C000F7006508FA007708AB018B1BAB178B137A
:1027D0008316DE007A08DF000A1283124F200A16E1
:1027E000AB1B8B17AB018B1BAB178B1371088316BD
:1027F000EE007008ED0083126F088316EC00831260
:102800006E088316EB007A08831203179300790889
:10281000920078089100770890000A120313F521BE
:102820000A16AB1B8B177A088316C6007908C500F9
:102830007808C4007708C3008312AB018B1BAB1769
:102840008B138316DF0183124C088316DE000A12F5
:1028500083124F200A16AB1B8B178310AB018B1B07
:10286000AB178B1383164608E1004508E0004408C7
:10287000DF004308DE007A08E5007908E400780804
:10288000E3007708E2000A128312AF200A16AB1B9E
:102890008B177A08F1007908F0007808EF007708C4
:1028A000EE00E301E201E308031D832C62080F3C04
:1028B000031C832CB03062078316C30083126308A5
:1028C0008316C4000318C40A0130831262078316FA
:1028D000C500831263088316C6000318C60AB03009
:1028E000450784008313461883170008C700430870
:1028F0008400831344188317470880008312E20A78
:102900000319E30A532C30304C078316BF001530EF
:10291000D1000230D2000A128312DE270A16E30128
:10292000E201E308031DAC2C62080F3C031CAC2C35
:10293000B03062078400831363188317000883167E
:10294000C300D0000A128A1583128D220A168A113A
:10295000E20A0319E30A912CB42C4C08173C031D1E
:10296000B42C831673298312C72BEE2C4C08183C09
:10297000031DEE2CE501E401F101F001EF01EE0190
:1029800015308316D1000230D2000A128312DE27DE
:102990000A16E301E201E308031DEE2C62080F3C76
:1029A000031CEE2CB0306207840083136318831776
:1029B00001308000B03062078400831363188317EE
:1029C00000088316C300D0000A128A1583128D22D4
:1029D0000A168A11E20A0319E30ACB2C0130831686
:1029E000D100D2000A128312DE270A16C63003175E
:1029F0008D0007308F000310093083160313C300C6
:102A00000A128A15831268230A168A1189308400F3
:102A100083162B08C6002A08C5002908C400280808
:102A2000C3000230C7000A128A158312E2230A1675
:102A30008A1101308316D1000230D2000A128312AB
:102A4000DE270A16CC3003178D0007308F000310E5
:102A5000083083160313C3000A128A1583126823F1
:102A60000A168A11C930840083162708C600260872
:102A7000C5002508C4002408C3000330C7000A129B
:102A80008A158312E2230A168A1120308316D00099
:102A90000A128A1583128D220A168A11153083169E
:102AA000D1000130D2000A128312DE270A16D43078
:102AB00003178D0007308F000A128A150313D322E3
:102AC0000A168A1115308316D1000230D2000A127C
:102AD0008312DE270A16D93003178D0007308F00C6
:102AE0000A128A150313D3220A168A118316732930
:022AF000630081
:02400E00323F3F
:00000001FF
;PIC16F877A
;CRC=A636  CREATED="18-Jan-24 20:04"
