:1000000010308A0000280000FF00030E8301A100C9
:100010000A08A0008A010408A2007708A300780853
:10002000A4007908A5007A08A60003170D08031399
:10003000A70003170F080313A80003170C080313E6
:10004000A90003170E080313AA00831383120B1EC3
:100050002B288B184C28220884002308F70024083A
:10006000F8002508F9002608FA00270803178D0074
:100070000313280803178F000313290803178C00A4
:1000800003132A0803178E00031320088A00210E89
:100090008300FF0E7F0E09008A110A125A2E8E303D
:1000A000F70083166D08F8006C08F900FA01F808EB
:1000B000031D64287908F800F9010830F702F808F0
:1000C000031D6428F7016C280310F81B6B28F90D39
:1000D000F80DF7036428F8138312080083166D08DF
:1000E00083120317940011089406941F80280311AB
:1000F000031083160313ED1B0314E5288312031763
:10010000831603136D0883120317940010089500DB
:10011000831603136C0883120317950203199D2895
:10012000941B952883160313E5280308013A8300DE
:1001300083160313E528831203171108950083160D
:1001400003136D088312031795020319B428941B37
:10015000AC2883160313E5280308013A83008316AD
:100160000313E5288312031712089500831603135F
:100170006E088312031795020319CB28941BC3281A
:1001800083160313E5280308013A8300831603133B
:10019000E5288312031713089500831603136F08CD
:1001A0008312031795020319E228941BDA28831699
:1001B0000313E5280308013A830083160313E52897
:1001C0008312031703108316031383120800803071
:1001D000831CED280317910603130317960197015B
:1001E000831603136D0883120317950011089506F3
:1001F000831603136C080319012A83120317940052
:10020000F700100803190C2A940203199C29031CF7
:100210004A2911089A009A171208990013089800A1
:10022000970103109A0C990C980C970C940B1029B9
:10023000951F1D2916142C2A161014101616EF30AF
:1002400084008313412A1612951B3029141C3B2964
:100250009A0C990C980C970CF70A0319272A3B293A
:100260009A1B3E290310970D980D990D9A0DF703CF
:100270000319272A30291617C029161383160313CA
:100280006D08831203179500951F48299A17202A95
:100290009A13202A10089400F700831603136C08A1
:1002A000831203179402831603136D088312031736
:1002B0009A009A17831603136E0883120317990086
:1002C000831603136F088312031798009701031016
:1002D0009A0C990C980C970C940B6629951F73290E
:1002E00096142C2A96101410961613308400831737
:1002F000412A9612951B8629141C91299A0C990C57
:10030000980C970CF70A0319272A91299A1B94290C
:100310000310970D980D990D9A0DF7030319272ACD
:1003200086299617C029961311089500951F9A29BA
:100330009A17202A9A13202A11089A009A1712084D
:10034000990013089800951FA9299A1316152C2AAD
:10035000161197011410EF3084008313412A951B66
:10036000D629831603136D08831203179500141CF6
:10037000C0299A0C990C980C970CF70A0319272A94
:10038000971FD129980A031DD129990A031DD12944
:100390009A0A031DD1299A0C990C980CF70A031993
:1003A000272A161B3D29961B9329F92980309A0686
:1003B0009A1FDE292C2A11089500EF2983160313B2
:1003C0006D088312031795009A08031DEF299908F9
:1003D000031DEF299808031DEF29F701202A9A1B16
:1003E000F9290310970D980D990D9A0DF70BEF2928
:1003F000272A951FFD299A17202A9A13202A831647
:100400000313831203171008F70011089A0012084B
:10041000990013089800202A831603136C08F7002C
:100420006D08831203179A00831603136E08831254
:1004300003179900831603136F088312031798009C
:100440001A08F8001908F9001808FA005F2AF701DD
:10045000F801F901FA015F2A9701980999099A09A7
:100460009709970A031D3A2A980A031D3A2A990AFE
:1004700003199A0A16181C29961872291619A82900
:10048000DB2900089807031C4B2A990A031D4B2AF5
:100490009A0A03191414840300089907031C532AA9
:1004A0009A0A0319141484030008801F803A9A07DB
:1004B00003181414161A2329961A7929AF2903133D
:1004C0000800031719080319D22AA1001D080319EF
:1004D000D22AA1070318732A7F30A102031CD22A53
:1004E0000319D22A772A8130A1070318D22A2108BA
:1004F000F700F801F901FA011A08A500A5171B0871
:10050000A4001C08A3001830A100A201231CA02AEB
:100510002008FA07031C922AF90A031D922AF80AF6
:100520000319A2171F08F907031C992AF80A0319CF
:10053000A2171E089B009B171B08F8070318A21799
:10054000A20DF80CF90CFA0CA50CA40CA30C0310CA
:10055000A10B852A0130F7070318D22AF81BB72A06
:10056000A50DFA0DF90DF80DF7030319D22AA51FF1
:10057000C82AFA0A031DC82AF90A031DC82AF80A5C
:10058000031DC82AF80CF90CFA0CF70A0319D22A31
:100590001A08A2001E08A206A21FD02AF817D62AFF
:1005A000F813D62AF701F801F901FA01031308003C
:1005B000ED308400831300080319EB2A0630F8009D
:1005C000F701F70BE12AF80BE02A7B30F700F70B75
:1005D000E72A800BDE2A080083166C080319D72B44
:1005E0008312031798001008031DF92A83160313BA
:1005F000D72B9802031C042B7F309807031C032B76
:1006000083160313D72B102B8130980203180B2B62
:1006100083160313D72B031D102B83160313D72B1D
:100620001808F700F801F901FA019701831603137E
:100630006D088312031796009617831603136E082E
:10064000831203179500831603136F088312031791
:100650009400193098001308940203183F2B0130BE
:10066000950203183F2B960203183F2B970203189D
:100670003F2B970A960A950A13089407712B1208C4
:10068000950203185A2B0130960203185A2B970231
:1006900003185A2B970A960A12089507130894070D
:1006A000031C712B950A031D712B960A031D712BD8
:1006B000970A712B1108803896020318702B0130AD
:1006C00097020318702B970A1108803896071208B2
:1006D0009507031C4E2B960A031D4E2B970A4E2B93
:1006E0007A14980B742B7F2B0310940D950D960D97
:1006F000970D0310FA0DF90DF80D990D2B2B191C00
:10070000872B0310F80CF90CFA0C990C8C2BF70BB7
:100710008C2B83160313D72B991BB52B0310940D29
:10072000950D960D970D130894020318A12B013017
:1007300095020318A12B96020318A12B9702031C04
:10074000C72B120895020318AC2B01309602031830
:10075000AC2B9702031CC72B110880389602031894
:10076000B52B01309702031CC72BFA0A031DC72BB8
:10077000F90A031DC72BF80A031DC72BF70A031D2F
:10078000C42B83160313D72BF80CF90CFA0C831621
:1007900003136D0883120317980011089806981F19
:1007A000D32BF817DD2BF813DD2B83160313F7017A
:1007B000F801F901FA0183120317031308000B086B
:1007C0000317900003138B13831603178C170C1455
:1007D000000000008312901FF02B03138B170317E8
:1007E0000318202C0C087F3990000D0891000F0889
:1007F0009200100803130C1EFB2B9900031711081D
:100800008D0012088F0003130B08031793000313C6
:100810008B13831603178C170C140000000083122F
:10082000931F152C03138B17031783160313EC0B5D
:100830001A2C1D2C83120317202C3D2C8312031716
:100840000C0D0E0D7F3990000D0891000F089200DD
:10085000100803130C1E2A2C9900031711088D0091
:1008600012088F008D0A03198F0A031083160313D1
:10087000EC0B3B2C3D2C8312DF2B831208008008ED
:1008800003195C2C8316ED010408EC006D10831B2A
:100890006D14000883120C1E4B2C990083166C08F3
:1008A000840083136D188317840A031D5A2C831246
:1008B000850A831683123F2C08000B088316EC0070
:1008C00083128B13831603178C170C14000000007F
:1008D0000313EC1F6E2C83128B17831683120317DE
:1008E0000C087F390319D12C83160313EC008312F3
:1008F00003170D0883160313ED00831203170F0867
:1009000083160313EE006C0883120C1E852C9900CD
:1009100083166D08831203178D00831603136E0868
:10092000831203178F0003130B088316EF00831243
:100930008B13831603178C170C140000000003138D
:10094000EF1FA52C83128B178316831203170C0D30
:100950000E0D7F390319D12C83160313EC0083127B
:1009600003170D0883160313ED00831203170F08F6
:1009700083160313EE006C0883120C1EBD2C990025
:1009800083166D08831203178D00831603136E08F8
:10099000831203178F008D0A03198F0A03135D2C2E
:1009A00003170313080003171908B63C9900FA014E
:1009B0001A089D009A1703109A0C9B0C9C0CFA0CB9
:1009C000F90CF80CF70C990BDB2C9D1FF22CF70996
:1009D000F809F909FA09F70A0319F80A0319F90AD3
:1009E0000319FA0A031308008318F92C2130840034
:1009F0008317F701F801F901FA010317A101A20118
:100A0000A301A40120081F041E041D040319382D8E
:100A10002030A5000310990D9A0D9B0D9C0DA10D82
:100A2000A20DA30DA40D20082402031D212D1F08D3
:100A30002302031D212D1E082202031D212D1D0846
:100A40002102031C322D1D08A1021E08031C1E0FCB
:100A5000A2021F08031C1F0FA3022008031C200F63
:100A6000A4020314F70DF80DF90DFA0DA50B0A2DCC
:100A700021088000840A22088000840A230880005C
:100A8000840A240880000313080004080317910057
:100A9000100893000319792D831603136F0883122E
:100AA00003179C00831603136E08831203179B0021
:100AB000831603136D08831203179A00831603131A
:100AC0006C08831203179900A0019F0120309E003B
:100AD00082309D00031361227A088316EF007908A3
:100AE000EE007808ED007708EC0083120317930BF3
:100AF0004C2D831603136F08831203179C00831673
:100B000003136E08831203179B00831603136D08EB
:100B1000831203179A00831603136C0883120317BA
:100B200099000313D3247A088316EF007908EE00A6
:100B30007808ED007708EC00EF1FAF2D8312031744
:100B40009103911683160313EC09ED09EE09EF09E1
:100B5000EC0A0319ED0A0319EE0A0319EF0A3B30F8
:100B60008312031798009A309700CA3096009501B7
:100B70000A30930010080319910A8314EC308400A2
:100B80008313831603136F08831203179C008316C5
:100B900003136E08831203179B00831603136D085B
:100BA000831203179A00831603136C08831203172A
:100BB00099001808A00017089F0016089E00150845
:100BC0009D000313F4247808F708031DFE2D031776
:100BD000100A1302031DEE2D0313FE2D1108031935
:100BE000012E0F3913020319F72D03183D2E911B07
:100BF0003D2E111B012E2030362E031320300317FB
:100C00009105911E122E91121008031D9103770871
:100C100091002D3003130C1E0B2E990003171108A1
:100C2000F700910110081302031D232E770891008D
:100C30002E3003130C1E1A2E990003171108F7000B
:100C40002030910500303030911E362E9112100860
:100C5000031D9103770891002D3003130C1E2E2ED7
:100C6000990003171108F70091013030F707770852
:100C700003130C1E392E99000317831018089C00CB
:100C800017089B0016089A0015089900A0019F01FB
:100C90009E010A309D000313F4247A08031798007C
:100CA000790897007808960077089500930BBD2D7A
:100CB000031308000130FB070318FC0A7C088316A5
:100CC000ED007B08EC0083124F207A088316EF00BA
:100CD0007908EE007808ED007708EC002F08831201
:100CE00003179300831603132E0883120317920031
:100CF000831603132D088312031791008316031321
:100D00002C0883120317900003136E20031CED2E92
:100D1000831083163708EF003608EE003508ED0023
:100D20003408EC00BC308312031793007430920037
:100D300013309100763090000313E7207A08831671
:100D4000B7007908B6007808B5007708B40027081E
:100D5000831203179C0083160313260883120317BC
:100D60009B00831603132508831203179A0083162A
:100D700003132408831203179900BC30A0007430B9
:100D80009F0013309E0076309D0003136122831074
:100D900083163B08EF003A08EE003908ED003808EA
:100DA000EC007A0883120317930079089200780800
:100DB0009100770890000313E7207A088316BB00A0
:100DC0007908BA007808B9007708B80083120514CA
:100DD0008316051083128B10B12F05108316051092
:100DE000C830ED008312D82283163B08EF003A0882
:100DF000EE003908ED003808EC0083120317930168
:100E000092017A309100883090000313EC227A0826
:100E10008316BF007908BE007808BD007708BC00C3
:100E2000B530831203178D0007308F000310133085
:100E300083160313EC008312DF234308840083131B
:100E4000441883173F24BF3003178D0007308F00ED
:100E50000314063083160313EC008312DF230830DB
:100E60008316EC00FA30ED008312D8228316EC0BC7
:100E7000322FC330831203178D0007308F00031306
:100E80005D2408308316EC00FA30ED008312D8227E
:100E90008316EC0B442FEB016B08013C031C9A2FCB
:100EA0000030831203178D0008308F000310463086
:100EB00083160313EC008312DF23C93084008316EA
:100EC0003F08EF003E08EE003D08ED003C08EC0056
:100ED00003308312031790000313452525300317B1
:100EE0008D0008308F000314083083160313EC00C4
:100EF0008312DF23C930840083163708EF003608D9
:100F0000EE003508ED003408EC00033083120317BF
:100F10009000031345252C3003178D0008308F00F7
:100F200003103F3083160313EC008312DF23831674
:100F3000EB0A4C2F0430EC00AF30ED008312D822C6
:100F40008316EC0B9C2FCC30831203178D000730D7
:100F50008F0003135D24C8308316ED008312D8225E
:100F60008B108B108A110A122B28412AAB21492899
:100F7000532A4129D41E222A43282216A212731171
:100F80002C1CB0060A00412AAB214928D3224E224C
:100F90003D1930180D050000412AAB214928432690
:100FA000CF29C5060A00412A0D050001412A2B2937
:100FB000532A0D050001412AAB21D7264F22C51E19
:100FC000B1060A00412AAB21572541283D11A53918
:100FD0002216A21273110D050001412AAB214928E6
:100FE000CD2AD81EB0060A00331830183000321847
:0A0FF00030183000341830183000BB
:10100000C7225410683A7438731DAF1761386917D6
:1010100074346937E739F032E135AE31EF36AF3A43
:101020007032613AE51F6138E92FEB32F91E4B2C23
:10103000332B5623382AB31A43185723D02026338C
:10104000E9326C32B21E2518AE196613E6346536E5
:10105000E418BD12301733332024542AD017311727
:10106000B1060A24EF39741DA030F0342E3AE8346A
:10107000EE337338E5306B17E337ED068A216F37AF
:10108000EE32633AE9376E1DA035E532F01661366F
:10109000693BE5068A060A00D327202AC9224E1D8D
:1010A000A012301730330000D3272026492A3A10E7
:1010B0002518AE196610000143244F27A023C9202C
:1010C0003A00C4274E10C724411D2000831666181D
:1010D0006D28831208126F28831683120816831650
:1010E0000812E6187728831288127928831683124B
:1010F000881683168812661981288312081383289C
:1011000083168312081783160813E6198B28831297
:1011100088138D288316831288178316881300007E
:1011200083120915831609110330F700F70B96286F
:101130008312091183160911831208008316E7012F
:10114000081600308312081A01308316E704881647
:1011500000308312881A0130F7000310F70D77086A
:101160008316E704081700308312081B0130F700CC
:10117000F70DF70DFC30F70577088316E70488179D
:1011800000308312881B0130F700F70DF70DF70DC3
:10119000F830F70577088316E7046708F80083122C
:1011A000080083160911091089108312091083168B
:1011B00009100816881608178817831289148316D1
:1011C000891000008312091583160911000083128B
:1011D0009E2078088316E6008312091183160911F0
:1011E00000008312091583160911F628F72800005C
:1011F00083129E2078088316E50083120911831656
:1012000009110812881208138813660EF700F030CF
:10121000F70577086504F8007808E500E51BD9288C
:10122000E308031D17298312091019298316831255
:10123000091483160910000083128910831689107F
:1012400000008312091183160911640EE5000F30A6
:10125000E5056508E60083126620831664080F39E9
:10126000E500E60083126620080028308316D200CD
:101270000C30D3000130D4000630D50083120911A0
:10128000831609118312091083160910831289101D
:10129000831689100812881208138813091109107F
:1012A00089108312AB018B1BAB178B130F30831686
:1012B000ED008A118312D8228A15AB1B8B170130DF
:1012C0008316D1005108033C031C7A290330E60041
:1012D00083126620AB018B1BAB178B130530831673
:1012E000ED008A118312D8228A15AB1B8B17831647
:1012F000D10A62290230E60083126620AB018B1B03
:10130000AB178B1305308316ED008A118312D82298
:101310008A15AB1B8B178316D1015108033C031CA4
:101320009F29D2305107840083130008D600E301BF
:101330005608E4008312D1208316D10A8D29831226
:101340008A110A169E28FF30D8005C145C088316A8
:10135000870083120718AE29D801CB29DC145C085A
:101360008316870083128718B8290130D800CB294B
:101370005C155C088316870083120719C2290230A6
:10138000D800CB29DC155C088316870083128719E7
:10139000CB290330D8000800FF30DA00D901590802
:1013A000033C031C622A5908FC3E0318002A043E31
:1013B000632A8316851283128512A3218316851250
:1013C00083128516002A8316051283120512A321A3
:1013D0008316051283120516002A831685118312BF
:1013E0008511A3218316851183128515002A831682
:1013F000051183120511A32183160511831205150A
:10140000580F032A602A580DF700F70DFC30F70536
:1014100077085907DA005A0B102ADA01622A5F2A84
:101420005A08033C03181C2A5A08063C031C1C2AB1
:101430000330DA02622A5F2A5A08073C031D242A75
:101440001430DA00622A5F2A5A08073C0318302A4F
:101450005A080A3C031C302A0430DA02622A5F2A46
:101460005A080B3C031D382A3230DA00622A5F2A00
:101470005A080B3C0318442A5A080E3C031C442A01
:101480000530DA02622A5F2A5A080F3C031D4C2AF3
:101490006430DA00622A5F2ADA08031D522A163005
:1014A000DA005F2A5A08023C031D592A1730DA0075
:1014B0005F2A5A08033C031D5F2A1830DA00622AAB
:1014C000D90ACF2908000A108A140A118207D929DB
:1014D000E329ED29F729CC215A0F6F2A892AAB017C
:1014E0008B1BAB178B130A308316ED008A11831206
:1014F000D8228A15AB1B8B17CC215A0F802A892A38
:101500005A08DB005A0F852A872ACC21822A5B08D9
:10151000DA0008008316600B8E2A912A4030E10021
:10152000922AE10101305F02E10761088038E200A0
:10153000E3016208E4008312D120080083165E08EC
:10154000073A83120319AE2A0B3A0319B52A063A51
:101550000319C92A023A0319D12AD82A013083165D
:10156000DF00E00083128A22DF2A8316E3010130C4
:10157000E4008312D120AB018B1BAB178B1302301D
:101580008316ED008A118312D8228A15AB1B8B17A4
:10159000DF2A01308316DF000230E00083128A2246
:1015A000DF2A8316E3011030E4008312D120DF2A02
:1015B00001308316E3005E08E4008312D1200800A6
:1015C0000B088316D10083128B13831603178C1715
:1015D0000C14000000000313D11FF12A83128B1793
:1015E0008316831203170C087F390319522B8316B5
:1015F0000313D100831203170D0883160313D200BF
:10160000831203170F0883160313D3005108DE005B
:1016100083129E2283165208831203178D008316AD
:1016200003135308831203178F0003130B08831649
:10163000D40083128B13831603178C170C1400002D
:1016400000000313D41F272B83128B1783168312DA
:1016500003170C0D0E0D7F390319522B831603133C
:10166000D100831203170D0883160313D2008312CF
:1016700003170F0883160313D3005108DE008312EB
:101680009E2283165208831203178D0083160313BC
:101690005308831203178F008D0A03198F0A03134F
:1016A000E02A0317031308008E30F7008316510851
:1016B000F7025208F9005308F800F917F708031960
:1016C0006C2B0310F908031D682BF80803196C2B09
:1016D000F90CF80CF70B612BD21F732BF809F909E1
:1016E000F80A0319F90A831208000B088316D200BE
:1016F00083128B13831603178C170C140000000041
:101700000313D21F862B83128B1783160318BF2B4C
:10171000831203170C087F3983160313D200831238
:1017200003170D0883160313D300831203170F0842
:1017300083160313D4005208DE0083129E22831600
:101740005308831203178D00831603135408831262
:1017500003178F0003130B088316D50083128B1316
:10176000831603178C170C14000000000313D51FF9
:10177000BC2B83128B178316D10BBF2BED2B83123F
:1017800003170C0D0E0D7F3983160313D20083123D
:1017900003170D0883160313D300831203170F08D2
:1017A00083160313D4005208DE0083129E22831690
:1017B0005308831203178D008316031354088312F2
:1017C00003178F008D0A03198F0A03108316031362
:1017D000D10BEB2BED2B8312752B83120800040821
:1017E0008316D6005508D8000319292C8312AB01A3
:1017F0008B1BAB178B1383165408831203179C00A3
:10180000831603135308831203179B0083160313D5
:101810005208831203179A00831603135108831288
:1018200003179900A0019F0120309E0082309D0087
:101830008A11031361228A15AB1B8B177A08831652
:10184000D4007908D3007808D2007708D100D80BEB
:10185000F62B8312AB018B1BAB178B13831654082B
:10186000831203179C008316031353088312031774
:101870009B00831603135208831203179A008316E2
:10188000031351088312031799008A110313D324F9
:101890008A15AB1B8B177A088316D4007908D300FE
:1018A0007808D2007708D100D41F632CD603D6164F
:1018B000D109D209D309D409D10A0319D20A0319CB
:1018C000D30A0319D40A3B30DD009A30DC00CA3059
:1018D000DB00DA010A30D80055080319D60A831450
:1018E000D130840083138312AB018B1BAB178B1396
:1018F00083165408831203179C008316031353089E
:10190000831203179B0083160313520883120317D5
:101910009A00831603135108831203179900831644
:1019200003135D0883120317A000831603135C08DA
:10193000831203179F00831603135B088312031798
:101940009E00831603135A08831203179D008A1101
:101950000313F4248A15AB1B8B177808F708031DB3
:10196000C82C8316550A5802031DB82C8312C82CA4
:1019700056080319CB2C0F3958020319C12C031830
:10198000032DD61B032D561BCB2C2030FD2C831290
:1019900020308316D605D61EDB2CD6125508031D23
:1019A000D6037708D6002D30DE0083129E228316E0
:1019B0005608F700D60155085802031DEB2C77088E
:1019C000D6002E30DE0083129E2283165608F700C2
:1019D0002030D60500303030D61EFD2CD6125508EA
:1019E000031DD6037708D6002D30DE0083129E2219
:1019F00083165608F700D6013030F7077708DE0067
:101A000083129E22831683108312AB018B1BAB17AC
:101A10008B1383165D08831203179C008316031330
:101A20005C08831203179B00831603135B08831261
:101A300003179A00831603135A0883120317990099
:101A4000A0019F019E010A309D008A110313F42416
:101A50008A15AB1B8B177A088316DD007908DC002A
:101A60007808DB007708DA00D80B6F2C83120800A7
:1020000003081F398300AC01813083169900A63084
:102010009800903083129800FF30DC00FE01FD0133
:1020200083161F149F141F159F1107309C008313E4
:102030008312AD01AE015430B1006830B20075308A
:10204000B3007930B400B501B0013130AF003030A9
:10205000B8003930B9003030BA003830BB00333006
:10206000BC003730BD00BE003630BF003830C00085
:10207000C100C201B701B6006130C5007030C600B2
:102080006930C7002E30C8007430C9006830CA00FB
:102090006930CB006E30CC006730CD007330CE009D
:1020A0007030CF006530D0006130D1006B30D2008D
:1020B0002E30D3006330D4006F30D5006D30D600A1
:1020C000D701C4014530C3002030DD00DE00DF0051
:1020D000E000E100E200E300E400E500E600E700E4
:1020E000E800E900EA00EB00EC00ED018316C00017
:1020F000C100C200C300C400C500C600C700C800BC
:10210000C900CA00CB00CC00CD00CE00CF00D0016A
:102110000F308600003088000910891009118500F1
:10212000831205148316051083120B16C0308B041E
:10213000831601130A128A15831235290A168A1189
:10214000D33003178D0007308F000313AB018B1BB7
:10215000AB178B130A125D240A16AB1B8B170430C6
:102160008316D1008312AB018B1BAB178B13FA3094
:102170008316ED000A128312D8220A16AB1B8B17A6
:102180008316D10BB228D630831203178D00073087
:102190008F000313AB018B1BAB178B130A125D244B
:1021A0000A16AB1B8B1704308316D1008312AB01C8
:1021B0008B1BAB178B13FA308316ED000A128312B8
:1021C000D8220A16AB1B8B178316D10BD628DB300F
:1021D000831203178D0007308F000313AB018B1B95
:1021E000AB178B130A125D240A16AB1B8B17043036
:1021F0008316D1008312AB018B1BAB178B13FA3004
:102200008316ED000A128312D8220A16AB1B8B1715
:102210008316D10BFA28E230831203178D000730A2
:102220008F0003100313AB018B1BAB178B130A300A
:102230008316EC000A128312DF230A16AB1B8B17DE
:102240002F088400831330188317AB018B1BAB1747
:102250008B130A123F240A16AB1B8B1722300C1E5D
:102260002F2999002C300C1E3329990022300C1E86
:102270003729990036088400831337188317AB0178
:102280008B1BAB178B130A123F240A16AB1B8B1741
:1022900022300C1E492999000D300C1E4D29990041
:1022A0000A300C1E5129990010308316D100831278
:1022B000AB018B1BAB178B13FA308316ED000A12A0
:1022C0008312D8220A16AB1B8B178316D10B572902
:1022D000ED30831203178D0007308F000313AB011D
:1022E0008B1BAB178B130A125D240A16AB1B8B17C3
:1022F00004308316D1008312AB018B1BAB178B13F9
:10230000FA308316ED000A128312D8220A16AB1B8C
:102310008B178316D10B7B290A128A15831203139C
:102320006B220A168A115A0F96295C2E5A080A3C0B
:10233000031C2B2B7508FA007408F40A0319F50A1C
:10234000F4007A08F50074080A3AF7007508FA00F4
:102350007708AB018B1BAB178B138316EC0075084A
:10236000ED000A1283124F200A16AB1B8B17AB012C
:102370008B1BAB178B1383163308831203179C0038
:10238000831603133208831203179B00831603136B
:102390003108831203179A0083160313300883123F
:1023A000031799007A08A00079089F0078089E001A
:1023B00077089D000A12031361220A16AB1B8B17C4
:1023C0007A088316D4007908D3007808D2007708F9
:1023D000D1008312AB018B1BAB178B138316ED015E
:1023E00083125A088316EC000A1283124F200A1631
:1023F000AB1B8B178310AB018B1BAB178B13831697
:102400005408EF005308EE005208ED005108EC00AC
:102410007A088312031793007908920078089100D4
:10242000770890000A120313E7200A16AB1B8B17DC
:102430007A088316B3007908B2007808B1007708EB
:10244000B0008312AB018B1BAB178B138316EF010C
:10245000EE014830ED008530EC003308831203179D
:102460009300831603133208831203179200831616
:1024700003133108831203179100831603133008E6
:102480008312031790000A1203136E200A16AB1B67
:102490008B17031CA62AAB018B1BAB178B13831660
:1024A0003308EF003208EE003108ED003008EC0090
:1024B0002708831203179300831603132608831239
:1024C0000317920083160313250883120317910044
:1024D0008316031324088312031790000A120313B0
:1024E000EC220A16AB1B8B177A088316AB0079080F
:1024F000AA007808A9007708A8008312AB018B1BFB
:10250000AB178B1383162B08EF002A08EE0029085F
:10251000ED002808EC00BC308312031793007430E0
:10252000920013309100763090000A120313EC22CF
:102530000A16AB1B8B177A088316AF007908AE001A
:102540007808AD007708AC00CC2A8312AB018B1B56
:10255000AB178B1383163308EF003208EE003108F7
:10256000ED003008EC00BC30831203179300743088
:10257000920013309100763090000A120313EC227F
:102580000A16AB1B8B177A088316AF007908AE00CA
:102590007808AD007708AC008312EF01EE01EF0878
:1025A000031DFF2A6E080F3C031CFF2A5D306E07D7
:1025B0008316D10083126F088316D2000318D20A43
:1025C000013083126E078316D30083126F088316BF
:1025D000D4000318D40A5D305307840083135418C1
:1025E00083170008D50051088400831352188317FD
:1025F000550880008312EE0A0319EF0ACF2A303003
:102600005A07EC0015308316DF000130E0000A1293
:102610008A1583128A220A168A11EF01EE01EF0849
:10262000031D2A2B6E080F3C031C2A2B5D306E07FE
:10263000840083136F18831700088316D100DE000F
:102640000A128A1583129E220A168A11EE0A0319AB
:10265000EF0A0F2B5C2E5A08323C031DA92B1F30AA
:102660008316DF000130E0000A128A1583128A22E5
:102670000A168A11F43003178D0007308F000A12F2
:102680008A150313E0220A168A118316A30160300B
:10269000A2006A30A1008D30A0008312AB018B1B19
:1026A000AB178B1383162308EF002208EE002108D6
:1026B000ED002008EC00270883120317930083160F
:1026C00003132608831203179200831603132508A9
:1026D0008312031791008316031324088312031730
:1026E00090000A120313EC220A16AB1B8B177A0810
:1026F0008316AB007908AA007808A9007708A8001B
:102700008312AB018B1BAB178B1383162B08EF00C7
:102710002A08EE002908ED002808EC00BC308312DE
:1027200003179300743092001330910076309000BC
:102730000A120313EC220A16AB1B8B177A088316B6
:10274000AF007908AE007808AD007708AC005D2EC8
:1027500083125A08143C031D272C1F308316DF00F8
:102760000130E0000A128A1583128A220A168A11A1
:10277000F73003178D0007308F000A128A150313F4
:10278000E0220A168A118316A3014030A2001C30F1
:10279000A1008D30A0008312AB018B1BAB178B13F4
:1027A00083162308EF002208EE002108ED00200820
:1027B000EC002708831203179300831603132608DF
:1027C000831203179200831603132508831203173D
:1027D00091008316031324088312031790000A1232
:1027E0000313EC220A16AB1B8B177A088316AB0077
:1027F0007908AA007808A9007708A8008312AB011D
:102800008B1BAB178B1383162B08EF002A08EE00E7
:102810002908ED002808EC00BC3083120317930050
:102820007430920013309100763090000A12031336
:10283000EC220A16AB1B8B177A088316AF007908B7
:10284000AE007808AD007708AC005D2E83125A0800
:10285000643C031DA52C1F308316DF000130E0000F
:102860000A128A1583128A220A168A11FA3003176D
:102870008D0007308F000A128A150313E0220A1612
:102880008A118316A3014030A2001C30A1008E30B3
:10289000A0008312AB018B1BAB178B13831623088D
:1028A000EF002208EE002108ED002008EC002708C8
:1028B000831203179300831603132608831203174A
:1028C00092008316031325088312031791008316C1
:1028D000031324088312031790000A120313EC2237
:1028E0000A16AB1B8B177A088316AB007908AA006F
:1028F0007808A9007708A8008312AB018B1BAB17DF
:102900008B1383162B08EF002A08EE002908ED0030
:102910002808EC00BC308312031793007430920037
:1029200013309100763090000A120313EC220A163D
:10293000AB1B8B177A088316AF007908AE007808B6
:10294000AD007708AC005D2E83125A08163C031DBB
:10295000292D051483160510AB01AA01A901A801B0
:10296000B301B201B101B0013308D4003208D30081
:102970003108D2003008D1000A128A15831254237C
:102980000A168A117908F5007808F400AB018B1B50
:10299000AB178B1375088316ED007408EC000A1250
:1029A00083124F200A16AB1B8B177A088316AF00D1
:1029B0007908AE007808AD007708AC00BB01BA0119
:1029C000B901B801B701B601B501B4013708D400A7
:1029D0003608D3003508D2003408D1000A128A150F
:1029E000831254230A168A117908FC007808FB0028
:1029F0001F308316DF000130E0000A128A158312AF
:102A00008A220A168A11EF01EE01EF08031D282D14
:102A10006E080F3C031C282D5D306E078400831365
:102A20006F188317013080005D306E0784008313B8
:102A30006F18831700088316D100DE000A128A156A
:102A400083129E220A168A11EE0A0319EF0A052D37
:102A50005C2E5A08173C031D222E0A128A15831277
:102A600003136B220A168A115A0F372D202E5A088B
:102A70000A3C031C192E7308FA007208F20A0319A3
:102A8000F30AF2007A08F30072080A3AF7007308B2
:102A9000FA007708AB018B1BAB178B138316EC0086
:102AA0007308ED000A1283124F200A16AB1B8B1716
:102AB000AB018B1BAB178B138316270883120317ED
:102AC0009C00831603132608831203179B008316AA
:102AD00003132508831203179A008316031324088F
:102AE0008312031799007A08A00079089F007808DC
:102AF0009E0077089D000A12031361220A16AB1B81
:102B00008B177A088316D4007908D3007808D2008E
:102B10007708D1008312AB018B1BAB178B13831685
:102B2000ED0183125A088316EC000A1283124F201B
:102B30000A16AB1B8B178310AB018B1BAB178B13C8
:102B400083165408EF005308EE005208ED005108B8
:102B5000EC007A0883120317930079089200780832
:102B60009100770890000A120313E7200A16AB1BA6
:102B70008B177A088316A7007908A6007808A500A5
:102B80007708A400F101F001F108031DEC2D700895
:102B90000F3C031CEC2DC0307007D1007108D2002F
:102BA0000318D20A01307007D3007108D40003184B
:102BB000D40AC030530784008313541883170008C5
:102BC000D5005108840083135218831755088000DC
:102BD000F00A0319F10AC42D303083125A07831604
:102BE000CF001530DF000230E0000A128A15831290
:102BF0008A220A168A11F101F001F108031D182E2C
:102C000070080F3C031C182EC0307007840083131B
:102C10007118831700088316D100DE000A128A1586
:102C200083129E220A168A11F00A0319F10AFD2D59
:102C3000202E5A08173C031D202E83168C29831240
:102C40002D2D5C2E5A08183C031D5C2EF301F20159
:102C50008316A701A601A501A4011530DF000230EB
:102C6000E0000A128A1583128A220A168A11F101DB
:102C7000F001F108031D5C2E70080F3C031C5C2E54
:102C8000C0307007840083137118831701308000EF
:102C9000C0307007840083137118831700088316EF
:102CA000D100DE000A128A1583129E220A168A11AA
:102CB000F00A0319F10A392E83160130DF00E00013
:102CC0000A128A1583128A220A168A114C300317B7
:102CD0008D0008308F000310093083160313D100D4
:102CE0000A128A15831275230A168A11C9308400C4
:102CF00083163B08D4003A08D3003908D2003808BC
:102D0000D100D5010A128A158312EF230A168A11FF
:102D100001308316DF000230E0000A128A158312A8
:102D20008A220A168A11543003178D0008308F004A
:102D30000310083083160313D1000A128A15831278
:102D400075230A168A11C930840083163708D40007
:102D50003608D3003508D2003408D1000330D5003E
:102D60000A128A158312EF230A168A11203083165D
:102D7000DE000A128A1583129E220A168A11153065
:102D80008316DF000130E0000A128A1583128A22BE
:102D90000A168A115C3003178D0008308F000A1262
:102DA0008A150313E0220A168A1115308316DF00F4
:102DB0000230E0000A128A1583128A220A168A114A
:102DC000613003178D0008308F000A128A15031333
:0C2DD000E0220A168A1183168C29630089
:02400E00323F3F
:00000001FF
;PIC16F877A
;CRC=8E96  CREATED="14-Jan-24 16:17"
